:020000040800F2
:10000000B0C000204D010008FD21000815160008B1
:1000100011210008FD0B0008E13600080000000077
:10002000000000000000000000000000E7310008B0
:10003000490C00080000000063010008D1320008EC
:10004000670100086701000867010008E531000842
:100050006701000867010008990F000867010008A0
:1000600067010008670100086701000867010008D0
:1000700067010008670100086701000867010008C0
:1000800067010008670100086701000867010008B0
:1000900067010008670100086701000867010008A0
:1000A0006701000867010008670100086701000890
:1000B0006701000835330008670100086701000880
:1000C0006701000867010008670100086701000870
:1000D00067010008B5340008D13400086701000842
:1000E0006701000867010008670100086701000850
:1000F0006701000867010008670100086701000840
:10010000670100086701000867010008670100082F
:10011000670100086701000867010008670100081F
:10012000670100086701000867010008670100080F
:10013000DFF80CD000F05CFB004800476945000880
:10014000B0C0002080F30888704700000648804750
:1001500006480047FEE7FEE7FEE7FEE7FEE7FEE7AC
:10016000FEE7FEE7FEE7FEE7D532000831010008B2
:1001700040EA01039B0703D009E008C9121F08C029
:10018000042AFAD203E011F8013B00F8013B521EA9
:10019000F9D27047D2B201E000F8012B491EFBD220
:1001A00070470022F6E710B513460A460446194682
:1001B000FFF7F0FF204610BD421E12F8013F002B52
:1001C000FBD111F8013B02F8013B002BF9D170473C
:1001D00030B505462A460B4612F8010B13F8014BC1
:1001E00008B1A042F8D01CB1002802D06D1CF1E784
:1001F000284630BDCAB2401E10F8011F8A4202D004
:100200000029F9D100207047421C10F8011B002979
:10021000FBD1801A704710B5044600E0401C0378FB
:10022000002BFBD100E0401C521E04D311F8013B0F
:100230000370002BF7D100210170204610BD03464A
:1002400011F8012B00F8012B002AF9D1184670474C
:1002500070B5064603F06CFB046805460A220021CF
:10026000304600F091F92C6070BD2DE9FE4F8046BC
:1002700081EA0300C00F0C46009021F0004123F0FA
:100280000045B8EB0200A94105D240462146904600
:100290001C460B46024623F00040104347D0270D72
:1002A000C7F30A00C3F30A510290401A0190402894
:1002B0006BDAC3F3130040F4801B0098924620B120
:1002C0000023D2EB030A63EB0B0B01985946C0F1F4
:1002D0004002504600F029F906460D465046594660
:1002E000019A00F031F910EB08006141002487EA1F
:1002F000115284EAE7731A4340D0009A62B3019A1C
:10030000012A4FEA075215DC001B61EB02014FF096
:10031000004202EA0752CDE90042001C41F580117B
:1003200032462B4600F077F903B0BDE8F08F404627
:100330002146F9E7001B61EB0201001C41F5801327
:1003400000185B412018A2F5001747EB030140EAB3
:10035000D570B6196D4111E06D084FEA360645EAD1
:10036000C0754FEA0752001B61EB0201001C41F50A
:10037000801149084FEA30000019514132462B469E
:1003800003B0BDE8F04F00F037B9009801224000FB
:100390000023D0EB020263EBE073009821464FEAA2
:1003A000E074B8EB000061EB0401E9E783F000437F
:1003B0005BE781F0004158E72DE9FE4F81EA030435
:1003C00004F0004421F0004100944FF0000B23F0B2
:1003D000004350EA01045ED052EA03045BD0C3F349
:1003E0000A54C1F30A552C44A4F2F3340194A0FB3F
:1003F0000254C1F3130141F48011C3F3130343F416
:10040000801301FB024400FB034E840A970A44EA6E
:10041000815447EA8357A4FB076802958D0A05FBC0
:1004200007854FEA932C04FB0C542705029D4FEAE5
:10043000065847EA1637B5EB08056EEB070C870E32
:10044000920E47EA811742EA8312A7FB0201B6EB3C
:100450000B0164EB00042B0D43EA0C335E1844EBF4
:100460001C50DA465146E7FB0201C5F313044FEA7C
:100470000B3343EA14534FEA0432019C43EA060368
:10048000A4F10C040294009CCDE900B400F0C3F880
:1004900003B0BDE8F08F00200146F9E730B50B4608
:1004A000014600202022012409E021FA02F59D42A4
:1004B00005D303FA02F5491B04FA02F52844151E78
:1004C000A2F10102F1DC30BD2DE9F05F054600200C
:1004D00092469B4688460646814640241BE02846B5
:1004E00041464746224600F095F953465A46C01AFF
:1004F000914110D311461846224600F016F82D1AE5
:1005000067EB01084F4622460120002100F00DF85C
:1005100017EB00094E41201EA4F10104DFDC484620
:1005200031462A464346BDE8F09F202A04DB203AA4
:1005300000FA02F1002070479140C2F1200320FA36
:1005400003F3194390407047202A06DBCB17203A6B
:1005500041FA02F043EAE07306E041FA02F3D040C8
:10056000C2F1200291400843194670473A2800D250
:10057000303820F02002412A01D3A2F1370088420E
:1005800001D34FF0FF3070472DE9F04791460F46F9
:1005900080460446002614F8015B2DB100F04AF9AC
:1005A0000068405DC007F6D12B2D02D02D2D18D04C
:1005B000641E4A463946204600F040F927B13968A2
:1005C000A14201D1C7F8008071054FF002040BD59C
:1005D0004042002803DD03F0ABF90460A007BDE84A
:1005E000F08746F48066E4E70028F8DA03F0A0F923
:1005F00004606FF00040F2E710B5141E73F10004C0
:1006000008DA401C41F1000192185B411A4301D104
:1006100020F0010010BD2DE9F04D92469B4611B12E
:10062000B1FA81F202E0B0FA80F220329046FFF790
:100630007CFF04460F4640EA0A0041EA0B0153469C
:100640005A46084313D0114653EA010019D0C8F1A5
:100650004002504600F0DEF805460E465046594628
:100660004246FFF762FF084305D0012004E0204620
:100670003946BDE8F08D0020054346EAE0762C437C
:1006800037430A986305E40AA0EB08000022FD0A3C
:1006900044EA47540A3002D500200146E9E7010543
:1006A00010196941DDE9084500196941BDE8F04DBF
:1006B000A2E72DE9F04D81EA030404F0004B21F09C
:1006C000004514464FF0000A23F0004150EA0502AD
:1006D00020D054EA01021DD0C5F30A570246C5F3E3
:1006E0001303C1F31300C1F30A5640F4801543F419
:1006F0008013A7EB0608101BD64608F2FD3873EBF3
:10070000050002D308F1010801E092185B41B8F13D
:10071000000F03DA00200146BDE8F08D00204FF401
:100720008011064684460EE0171B73EB050705D3C0
:10073000121B63EB050306434CEA010C49084FEA20
:10074000300092185B4150EA0107EDD152EA0300F4
:1007500012D082EA040083EA0501084305D0101B89
:10076000AB4106D20122002306E000224FF00043F5
:1007700002E06FF0010253101AEB06004CEB085137
:1007800010EB0A0041EB0B01BDE8F04DFFF734BF61
:10079000C1F30A52C1F3130140F2FF3341F4801157
:1007A0009A4202DA00200146704740F233439A42EF
:1007B000A2F2334202DC524200F02CB8FFF7B5BE81
:1007C00030B5041E71F1000404DB4FF000444042D8
:1007D00064EB0101141E73F1000405DB1C464FF0AD
:1007E0000043524263EB0403994208BF904230BD7C
:1007F000064C074D06E0E06840F0010394E807006E
:1008000098471034AC42F6D3FFF796FC2C4F000803
:100810004C4F0008202A04DB203A21FA02F0002184
:10082000704721FA02F3D040C2F120029140084300
:100830001946704700487047F44D00082DE9F05FF5
:1008400082460078002715468B460AF10104B94616
:10085000302801D09DB113E014F8010B012778284E
:1008600003D0582801D045B10AE00DB1102D07D1B1
:100870000027102514F8010B02E0082500E00A25E6
:100880000026B0460EE005FB080005FB06F1012737
:1008900001EB10461FFA80F8B6F5803F00D3B94649
:1008A00014F8010B2946FFF761FE0028EBDABBF1D3
:1008B000000F05D00FB1641E00E05446CBF8004095
:1008C000B9F1000F06D003F033F802210160C81E11
:1008D000BDE8F09F48EA0640FAE700002DE9F0473E
:1008E000074689469046DDF820C0002100220024FA
:1008F00000260025002004460246014645E0002669
:1009000001E0491C761C614502D2585C2028F8D0D1
:10091000614500D13BE0ACEB0100022807D3585CF5
:100920000D2804D1481C185C0A2800D12CE0585C22
:100930000A2800D128E01EB16FF02B00BDE8F08737
:10094000585C3D2806D1601C0446022802D96FF08D
:100950002B00F3E7585C7F2806DC585CDFF8E4A046
:100960001AF800007F2802D16FF02B00E6E7585CF0
:10097000DFF8D0A01AF80000402803DA14B16FF0B5
:100980002B00DBE7521C00BF491C6145B7D300BFF9
:100990001AB90020C8F80000D0E7D00800EB4000EA
:1009A0004FEA400A02F0070000EB40004000C01D83
:1009B0000AEBD002121B0FB1914504D2C8F80020F7
:1009C0006FF02900BAE703240020064602463D46A0
:1009D00031E018780D2805D018780A2802D0187848
:1009E000202800D125E01878DFF858A01AF8000078
:1009F000402801D1012000E00020241A1878DFF8F7
:100A000044A01AF8000066F39F100646501C0246E8
:100A100004280DD1002214B1300C05F8010B012C73
:100A200002D9300A05F8010B022C01D905F8016B37
:100A300000BF491E5B1C0029CBD1E81BC8F8000091
:100A400000207BE7F04C00082DE9F04F074689466F
:100A5000099C00250026AC46A846AA4600211CB9E0
:100A600000201060BDE8F08F0320B4FBF0F04FF0E1
:100A7000030BB4FBFBFE0BFB1E4BBBF1000F02D0C4
:100A80004FF0010B01E04FF0000B00EB0B06B6F14D
:100A9000804F05D34FF0FF3010606FF02900E1E781
:100AA000B600701C814500D327B9701C10606FF030
:100AB0002900D7E70320B4FBF0F000EB4006002547
:100AC000394629E013F801CB13F8018B13F801AB79
:100AD0002D484FEA9C0B10F80B0001F8010B4FEA70
:100AE0000C1000EB281000F03F00DFF89CB01BF862
:100AF000000001F8010B4FEA880000EBAA1000F09B
:100B00003F001BF8000001F8010B0AF03F001BF842
:100B1000000001F8010BED1CB542D3D3A5422DD244
:100B200013F801CB681CA04202D213F8010B00E0BD
:100B3000002080461448CCF3850B10F80B0001F818
:100B4000010B4FEA0C1000EB281000F03F00DFF81B
:100B500038B01BF8000001F8010B681CA04207D256
:100B60003F2000EA88001BF8000001F8010B02E0BA
:100B70003D2001F8010B3D2001F8010BC81B10605E
:100B80000020087000BF6DE7B04C000810B500F001
:100B9000CBF803E04FF4FA7000F058F80AA10CA06B
:100BA00000F092F90028F5D103E04FF4FA7000F05C
:100BB0004DF801F03BFD0028F7D102F0B9F86420B0
:100BC00000F044F810BD0000434F4E4E4543540022
:100BD00041542B43495053544152543D22544350A5
:100BE000222C223138332E3233302E34302E393607
:100BF000222C313838330D0A0000000002A11148C0
:100C000002F01EFE00BFFEE70D0A2A2A2A2A2A2A1F
:100C10002A2A2A2A2A2A2A2A2A2A2A2A2A42757388
:100C20004661756C745F48616E646C65722A2A2A2D
:100C30002A2A2A2A2A2A2A2A2A2A2A2A2A2A2A2A14
:100C40000D0A00000038014070470000002100B983
:100C5000704720F07F400E4A128842434FF0E02355
:100C60005A6100229A6101221A6100BF4FF0E0220E
:100C7000116901F001021AB101F48032002AF5D0A5
:100C800000224FF0E0231A619A6100BFE0E7000004
:100C9000160000204FF0E020006920F004004FF023
:100CA000E02108610920074908700846007800EB38
:100CB0004001C1EBC0104FF6FF7101EAC0000249CC
:100CC00008807047140000201600002010B54FF473
:100CD000A0410348FFF765FA00200249088010BDD3
:100CE000AC5000205200002070B50546002400BF23
:100CF00000F038F938B909A10A48FFF769FA044643
:100D00000CB1204670BD0520FFF7A0FF2800A5F11B
:100D100001018DB2ECD100BFF4E700002B49504433
:100D20002C000000AC50002010B500224FF4807160
:100D3000284800F051FBFA20FFF788FF012211023A
:100D4000244800F049FB4FF4FA70FFF77FFFFFF7EC
:100D5000BDFF21A1224802F073FD03E04FF4FA70B9
:100D6000FFF774FF1FA120A000F0AEF80028F5D116
:100D70001FA11B4802F064FD03E04FF4FA70FFF777
:100D800065FF18A11DA000F09FF80028F5D11FA154
:100D9000134802F055FD03E04FF4FA70FFF756FFD9
:100DA00010A11EA000F090F80028F5D11FA10C485A
:100DB00002F046FD03E04FF4FA70FFF747FF1EA173
:100DC0001FA000F081F80028F5D125A1044802F009
:100DD00037FD10BD000C0140312E2041540D0A009A
:100DE000003801404F4B000041540D0A0000000044
:100DF000322E2043574D4F44450D0A0041542B439A
:100E0000574D4F44453D310D0A000000332E20411F
:100E1000542B4357444843500D0A000041542B4380
:100E200057444843503D312C310D0A00342E2043A5
:100E3000574A41500D0A0000474F542049500000C6
:100E400041542B43574A41503D224F50504F222C82
:100E5000226C6975616978696E220D0A00000000D4
:100E6000352E204553503832363620496E6974206D
:100E70004F4B0D0A0000000070B50546002400BF6E
:100E800000F070F880B90DA10E48FFF7A1F90446F3
:100E900054B13A212046FFF7ADF9044614B1641C61
:100EA000204670BD0020FCE70520FFF7CFFE28009C
:100EB000A5F101018DB2E3D100BFF2E72B49504407
:100EC0002C000000AC5000202DE9F04104460D46F6
:100ED000C8262046FFF798F987B23A4621460D48C2
:100EE00002F0D2FC0FE000F03DF848B929460A486C
:100EF000FFF76EF920B1FFF7E9FE0020BDE8F081B1
:100F00000A20FFF7A3FE3000A6F10101CEB2EAD11C
:100F10000120F3E700440040AC50002030B589B018
:100F200004460D46FFF7D2FE2A4608A101A802F0AA
:100F3000D9FC0AA101A8FFF7C7FF20B92A4621461C
:100F4000074802F0A1FC09B030BD000041542B431A
:100F5000495053454E443D25640D0A003E000000B3
:100F6000004400400A48008808B90120704708483A
:100F7000008808490988884203D100200449088074
:100F8000F4E703480088034908800120EEE70000E9
:100F900052000020540000207047000030B5044685
:100FA00004254FF4302000F089F80546042D17D1B0
:100FB0000C48006940F002000A4908610846446193
:100FC000006940F0400008614FF4302000F076F8EE
:100FD00005460448006941F6FD7108400149086171
:100FE000284630BD0020024004200B49C96801F0AA
:100FF000010109B101200EE00749C96801F00401AF
:1010000009B1022007E00449C96801F0100109B1E3
:10101000032000E0042070470020024003480069DC
:1010200040F0800001490861704700000020024044
:101030000549096821F01001034A11601146096849
:1010400001431160704700000020024070B5044663
:101050000D460426F00200F031F80646042E11D1A8
:101060000948006940F00100074908612580F00245
:1010700000F024F806460448006941F6FE71084075
:1010800001490861304670BD002002400146002041
:10109000034A106800F038000843106070470000F1
:1010A00000200240024803494860034848607047F6
:1010B0002301674500200240AB89EFCD00B5024611
:1010C0000423FFF791FF034603E0FFF78DFF03467C
:1010D000521E012B01D1002AF7D102B9052318466F
:1010E00000BD000010B50121042000F02DF94020C2
:1010F0004A490880032088701820C870484800F0CA
:1011000097F88020454908800420C870444800F0C2
:101110008FF8042041490880032088701820C87087
:10112000404800F085F808203C4908800420C87039
:101130003C4800F07DF84FF40070384908800320E7
:1011400088701020C870384800F072F84FF4807032
:1011500032490880032088701020C870324800F09F
:1011600067F880202D490880032088701020C870FF
:101170002D4800F05DF84020284908800320887041
:101180001020C870284800F053F84FF4007023492D
:101190000880032088702820C870244800F048F890
:1011A0004FF480701D490880032088701020C8709B
:1011B0001E4800F03DF84FF4806018490880032075
:1011C00088701020C870194800F032F84FF4805031
:1011D00012490880032088701020C870134800F05E
:1011E00027F801200D490880032088701020C8705E
:1011F0000C4800F01DF81020084908800020C87035
:101200000A4800F015F810200449C8700001088051
:1012100003208870024800F00BF810BD3000002059
:10122000000C014000080140001C0140001001407A
:101230002DE9F0410246002500260020002300246D
:10124000002791F803C00CF00F0591F803C00CF0D3
:10125000100CBCF1000F03D091F802C04CEA050558
:1012600091F800C0BCF1000F31D0146800202BE0D1
:101270004FF0010C0CFA00F3B1F800C00CEA0306C1
:101280009E4220D183004FF00F0C0CFA03F7BC43B1
:1012900005FA03FC4CEA040491F803C0BCF1280FE2
:1012A00006D14FF0010C0CFA00FCC2F814C00AE0A1
:1012B00091F803C0BCF1480F05D14FF0010C0CFAB6
:1012C00000FCC2F810C0401C0828D1D31460B1F84B
:1012D00000C0BCF1FF0F34DD546800202EE000F1A7
:1012E000080C4FF0010808FA0CF3B1F800C00CEA42
:1012F00003069E4221D183004FF00F0C0CFA03F736
:10130000BC4305FA03FC4CEA040491F803C0BCF1A9
:10131000280F05D100F1080C08FA0CF8C2F8148067
:1013200091F803C0BCF1480F07D100F1080C4FF051
:10133000010808FA0CF8C2F81080401C0828CED327
:101340005460BDE8F0810000F0B50A460023002497
:101350000021002500F00046B6F1004F02D11D4EDD
:10136000F16901E01B4E7168C0F3034583B200F4DC
:101370004016B6F5401F08D121F07061154E766811
:1013800026F07066134F7E6012E000F48016B6F50A
:10139000801F06D1032606FA05F4A14341F07061CF
:1013A00006E0460D360103FA06F6B14341F07061DE
:1013B00022B1460D360103FA06F6314300F000462D
:1013C000B6F1004F02D1034EF16101E0014E7160B0
:1013D000F0BD0000000001400AB1016100E0416180
:1013E000704700002DE9F04706460C464FF0AA086A
:1013F0004FF0000900270025002E30D03546286820
:1014000020601A492068884201D04FF0BB082D1D8A
:10141000286860602D1D2868A0602D1D2868E06088
:10142000E068B0F5A04F02D90020BDE8F08706F1D2
:101430001009E06800EB09073D46286820612D1D72
:10144000286860610A496069884201D04FF0BB0892
:10145000B8F1AA0F01D10120E7E70020E5E705A1D7
:10146000084802F0EDF90020DFE700002E706B67FE
:101470002E67706B6E6F2041354135413541350D1A
:101480000A000000003801402DE9F04107460D46F2
:101490004FF0AA080026002423A13846FEF798FE44
:1014A0000646002E39D03446206828602049286836
:1014B000884201D04FF0BB08241D20686860241DBD
:1014C0002068A860241D2068E860E868142802D914
:1014D0000020BDE8F081241D20682861241D2168BA
:1014E0006961241D2168A961241D2168E961241D09
:1014F00021682962241D20686862241D2068A86272
:101500000C49A86A884201D04FF0BB08B8F1AA0F75
:1015100001D10120DDE70020DBE707A10A4802F046
:101520008FF90020D5E700002E786D6C00000000D8
:101530002E786D6C2E6C6D786E6F20413541354183
:101540003541350D0A000000003801402DE9FE4FFD
:1015500006460D46002400270020009001900290CE
:1015600080468246814600BF4AE04FF0000806EB05
:10157000090026A1FEF72CFE04EB440145F82100EA
:1015800006EB09003A21FEF735FE04EB440105EBBA
:101590008101486004EB440055F8200068B304EB77
:1015A000440005EB8000406838B304EB440055F874
:1015B0002000471D07E017F8012B4046411C01F0B1
:1015C000FF080DF8002004EB440005EB80004068A4
:1015D000B842F0D800200DF808006846FEF738FE43
:1015E000824604EB440005EB8000C0F808A00AF135
:1015F00005004044401C814400E003E0601CC4B28C
:10160000142CB2DB00BF2046BDE8FE8F2B495044AE
:101610002C00000002A1114802F012F900BFFEE701
:101620000D0A2A2A2A2A2A2A2A2A2A2A2A2A2A2A57
:101630002A2A2A2A2A486172644661756C745F48B6
:10164000616E646C65722A2A2A2A2A2A2A2A2A2A80
:101650002A2A2A2A2A2A2A2A2A0D0A000038014080
:1016600010B501F03FFCFFF73DFD4FF4A06000F026
:10167000FFFD6FF00400FE21002807DA0A07140EB0
:101680000E4A00F00F031B1FD45403E00A07130E89
:101690000B4A135400BFFFF7FDFA4FF4E13002F09C
:1016A00047F84FF4E13002F075F800F063F8FFF707
:1016B0003BFB04A1084802F0C3F810BD18ED00E0A0
:1016C00000E400E020486172647761726520696E11
:1016D0006974204F4B0D0A000038014010B50446D4
:1016E000012C05D1012240210448FFF775FE04E0DA
:1016F000002240210148FFF76FFE10BD001C014091
:1017000010B50446012C05D1012280210448FFF7C1
:1017100063FE04E0002280210148FFF75DFE10BD5A
:10172000001C014010B50446012C05D10122010224
:101730000548FFF751FE05E000224FF48071024892
:10174000FFF74AFE10BD0000001C014010B5044622
:10175000012C05D1012241020548FFF73DFE05E0BD
:1017600000224FF400710248FFF736FE10BD000062
:10177000001C014010B50020FFF7B0FF0020FFF76C
:10178000BFFF0020FFF7CEFF0020FFF7DFFF10BDF7
:1017900010B50446207B012802D1206802F042FDEA
:1017A000002020606060A060207310BD024600230E
:1017B00001230DE002F07F000870D2092AB10878F9
:1017C00040F080000870491C01E0184670475B1C1F
:1017D000042BEFDD4FF0FF30F8E770B504460E46FE
:1017E0000025206898B901202073304603F0D0F816
:1017F00020602068E0B100206060A66003E0002067
:10180000216848556D1CA068A842F8D810E0022055
:10181000207303E00020216848556D1CA068A84291
:10182000F8D800206060A068B04201D2002020609B
:1018300070BD00002DE9FF4F83B082468B46914674
:10184000159C0025002002900F2701904846FEF7C6
:10185000DBFC0FFA80F8B9F1000F03D1012007B0CB
:10186000BDE8F08F08F10200384487B2109808B143
:1018700045F00205129878B145F004051298FEF77C
:10188000C3FCC0B202901398FEF7BEFC014602985A
:10189000001D0844384487B2119820B1012804D0B3
:1018A000022808D104E000BF07E045F00C0504E081
:1018B00045F0140501E00220D1E700BF149808B1FB
:1018C00045F02405BAF1000F02D0BBF1000F01D1A1
:1018D0000320C4E745F0C0055046FEF795FC0646D8
:1018E0005846FEF791FC3044001D384487B2394613
:1018F0002046FFF772FF206808B90420AFE7394699
:101900002068FEF74EFC10216268501C6060206861
:101910008154D4E90023D118781FFFF747FF00B2A4
:1019200001900198002804DA2046FFF731FF0520D6
:1019300095E7616801980844606000216268501C66
:1019400060602068815404216268501C60602068D7
:1019500081544D216268501C60602068815451217F
:101960006268501C60602068815454216268501C79
:101970006060206881546268501C606020688154F7
:1019800004216268501C6060206881546168481CB2
:101990006060206845540698010A6268501C6060C7
:1019A000206881540698C1B26268501C606020684B
:1019B0008154C8F307216268501C6060206881541C
:1019C0006268501C6060206800F80280D4E9001250
:1019D000881842464946FEF71EFC60684044606035
:1019E00005F00400B8B30026139808B938A0139086
:1019F0001298FEF709FC86B2310A6268501C6060DA
:101A0000206881546268501C606020688654D4E964
:101A10000012881832461299FEF7FDFB60683044C8
:101A200060601398FEF7F0FB86B2310A6268501CC2
:101A30006060206881546268501C60602068865431
:101A4000D4E90012881832461399FEF7E4FB606867
:101A50003044606000BF05F08000C8B15046FEF71A
:101A6000D3FB86B2310A6268501C606020688154E2
:101A70006268501C606020688654D4E9001288189F
:101A800032465146FEF7C7FB60683044606000BFD5
:101A900005F04000C8B15846FEF7B6FB86B2310AE1
:101AA0006268501C6060206881546268501C6060ED
:101AB00020688654D4E90012881832465946FEF749
:101AC000AAFB60683044606000BF0020C7E60000E9
:101AD0000000000010B5044602212046FFF77DFEFD
:101AE000206808B9012010BDC0216268501C6060E8
:101AF0002068815400216268501C60602068815415
:101B00000020F0E72DE9FF4F83B083461746994642
:101B1000139C002500260020029001908046BBF116
:101B2000000F03D1012007B0BDE8F08F00260AE0C6
:101B30000498805D232803D00498805D2B2801D170
:101B40000220F0E7761C0498805D0028F0D148F070
:101B50003008119808B148F00108B01C00EB0905E5
:101B6000109820B1012804D002280AD105E000BF56
:101B700009E048F00208AD1C05E048F00408AD1C7F
:101B800001E00320CFE700BF8FB33878022821D1CE
:101B90004FF0000A00BF50460AF1010A385C7D2868
:101BA000F9D1AAF1030A0AF1070002900298A9EB01
:101BB000000AE81CA0EB0A012046FFF70EFE206891
:101BC00008B90420AFE7EA1CA2EB0A012068FEF77F
:101BD000E8FA19E0691D2046FFF7FFFD206808B903
:101BE0000420A0E7691D2068FEF7DBFA0CE0FFE7A0
:101BF000691D2046FFF7F1FD206808B9042092E72F
:101C0000691D2068FEF7CDFA6168481C6060206895
:101C100000F80180D4E9000281182846FFF7C6FDCC
:101C200001900198002804DA2046FFF7B1FD052055
:101C300079E76168019808446060C6F3072162682B
:101C4000501C6060206881546268501C606020688D
:101C50008654D4E90012881832460499FEF7DBFA5C
:101C6000606830446060109860B14FEA1B21626880
:101C7000501C6060206881546268501C606020685D
:101C800000F802B0C7B1387802280BD1D4E90012AD
:101C900088183946029AFEF76BFA61680298084480
:101CA000606009E0D4E9001288184A463946FEF718
:101CB0005FFA606848446060002034E72DE9F04135
:101CC00090B004460D4616469846169F23460CA231
:101CD000302104A8009501F0F1FD01200021CDE99B
:101CE000000133460A4604A9CDE902070A20FFF79E
:101CF00009FF18B1012010B0BDE8F0810020FAE71B
:101D0000247379732F25732F25732F64702F706FB1
:101D100073742F6A736F6E002DE9FF5F804617465C
:101D200099460E9C0026B246B3460025B8F1000F36
:101D300003D1012004B0BDE8F09F0BE057F8250067
:101D400008B90220F6E757F82500FEF75DFA0644C9
:101D5000681CC5B24D45F1DB09EB4900801C00EB66
:101D6000060A0AF105012046FFF737FD206808B989
:101D70000320DFE782216268501C60602068815484
:101D8000D4E9000281185046FFF710FD0FFA80FBDE
:101D9000BBF1000F04DA2046FFF7FAFC0420C9E784
:101DA0006068584460604FEA18216268501C6060A7
:101DB000206881546268501C6060206800F80280CE
:101DC000002524E057F82500FEF71EFA0646C6F364
:101DD00007216268501C6060206881546268501C52
:101DE000606020688654D4E90023D01857F8251085
:101DF0003246FEF710FA6068304460600198C1B264
:101E00006268501C606020688154681CC5B24D45F2
:101E1000D8DB00208EE7F0B504460D4626460123A8
:101E200000201060002114E0775C07F07F07106845
:101E300007FB03001060705C00F0800008B9481CCC
:101E4000F0BDDB01B3F5001F02D36FF00100F7E72F
:101E5000491CA942E8DB4FF0FF30F1E70146487822
:101E6000022801D001207047887810B188780128B5
:101E700001D1C878F7E7FF20F5E70146487808B1B7
:101E8000012070470020FCE72DE9FC5F81460D46EC
:101E900014461E46DDE90C8B99F8000000F00F0A8D
:101EA000002001900AF008000090CAF341008BF86E
:101EB000000001AA042109F10100FFF7ACFF48442A
:101EC000471C0198022802D30AF0010010B1FF203C
:101ED000BDE8FC9F7878397840EA0120208020888E
:101EE000801C0199884201D9FF20F1E754A1B81C58
:101EF000FEF76EF908B10F20EAE79BF8000020B169
:101F000001283DD0022877D13BE0009808B1FF209E
:101F1000DEE72188481C02F03BFD2860286808B9EC
:101F2000FF20D5E72288511C2868FEF73AF922885D
:101F3000B91C2868FEF71CF90198801E2188401AF8
:101F4000A8F80000B8F80010481C02F021FD30602D
:101F5000306820B9286802F065F9FF20B8E7B8F8C2
:101F60000020511C3068FEF71CF9B8F80020B4F8C6
:101F700000C0BB1C0CEB03013068FEF7F9F84FE022
:101F800000BF2088801C0199884201D9FF209FE76B
:101F90002088C01C395C2088801C385C41EA002104
:101FA0000E9801800E9808B9FF2091E72188481CFF
:101FB00002F0EEFC2860286808B9FF2088E7228834
:101FC000511C2868FEF7EDF82288B91C2868FEF736
:101FD000CFF80198001F2188401AA8F80000B8F82F
:101FE0000010481C02F0D4FC3060306828B9286822
:101FF00002F018F9FF206BE710E0B8F80020511C40
:102000003068FEF7CEF8B8F80020B4F800C03B1DE9
:102010000CEB03013068FEF7ABF801E0FF2057E757
:1020200000BF2B212846FEF7E5F820B923212846DA
:10203000FEF7E0F808B1FF204AE7002048E700007B
:10204000246372657100000001464878022801D0BF
:1020500001207047887820B9C8780A2801D100206B
:10206000F7E70120F5E70000F8B50446FF272078E0
:102070000511012D01DB0E2D01DD3846F8BD032DC4
:1020800024D1002000906A460421601CFFF7C3FEA3
:102090002044461C0098022803D3207800F0010059
:1020A00008B1FF20EAE77078317840EA0120801C0F
:1020B0000099884201D9FF20E0E706A1B01CFEF795
:1020C00087F808B10F2700E0032700E02F463846C5
:1020D000D4E7000024637265710000000146FF2010
:1020E0008A78A2B9CA78142A11D10A7932B1012AA0
:1020F00005D0022A04D0802A06D103E000BF00BF29
:10210000002003E0012001E0022000BF00BF704773
:1021100002A1114801F094FB00BFFEE70D0A2A2A34
:102120002A2A2A2A2A2A2A2A2A2A2A2A2A2A2A2A0F
:102130002A4D656D4D616E6167655F48616E646CC7
:1021400065722A2A2A2A2A2A2A2A2A2A2A2A2A2A6C
:102150002A2A2A2A2A0D0A00003801402DE9FF5FA9
:10216000884614461F464FF00009CA46002500263F
:10217000AB4620A10098FEF72BF805461DB90020BC
:1021800004B0BDE8F09F00BF002618E006EB460053
:1021900054F82000A0F1020906EB460004EB800091
:1021A000D0F804A0A94508D8AA4506D306EB4600F6
:1021B00004EB80004068451C03E0701CC6B2BE42C0
:1021C000E4DB00BF2A7858460BF1010B08F8002029
:1021D0006D1C781E00EB400004EB80004168781E07
:1021E00000EB400004EB800080680844A842CBD29A
:1021F0000120C5E72E706B670000000070470000EB
:1022000070B5002100230F22C47804B3154C246854
:1022100004F4E064C4F5E064210AC1F10403CA4097
:10222000447804FA03F184781440214309010E4CE8
:102230000678A155047804F01F050124AC40057808
:102240006D11AD0005F1E025C5F8004109E0047805
:1022500004F01F050124AC40044D0678761145F8C2
:10226000264070BD0CED00E000E400E080E100E0FD
:1022700002490143024A1160704700000000FA055C
:102280000CED00E0F0B58BB0054600260024284692
:10229000FDF7BAFFC7B20DB11C2F02DA01200BB057
:1022A000F0BD06E0A85D01A988550020A855701C66
:1022B000C6B2BE42F6DB002001A9885500260024E4
:1022C00055E001A8805D2B2810D008DC202814D010
:1022D00023282ED0252825D026283FD130E02F28AE
:1022E00012D03D2833D03F2838D114E0281923A13B
:1022F000FDF762FFE01CC4B236E0281920A1FDF70B
:102300005BFFE01CC4B22FE028191EA1FDF754FFAB
:10231000E01CC4B228E028191BA1FDF74DFFE01C0A
:10232000C4B221E0281919A1FDF746FFE01CC4B290
:102330001AE0281916A1FDF73FFFE01CC4B213E014
:10234000281914A1FDF738FFE01CC4B20CE02819CD
:1023500011A1FDF731FFE01CC4B205E001A8805DCA
:102360002855601CC4B200BF00BF701CC6B2BE427C
:10237000A7DB0020285500BF91E70000253242006E
:1023800025323000253246002533460025323500FF
:102390002532330025323600253344002DE9F04F35
:1023A000C9B005460C4616461F460DF5A47898E8B8
:1023B000000F0020489055B14CB13F48864206D3EB
:1023C0002FB1B9F1000F02D0BAF1780F03DA012072
:1023D00049B0BDE8F08F402118A8FDF7E2FE38466D
:1023E000FDF712FF05903B4648AA4021009018A82F
:1023F000FEF774FA482106A8FDF7D3FEBBF1000FE3
:1024000009D02EA033462FA248218DE8310006A81E
:1024100001F054FA09E029A0334630A248218DE8A2
:102420001101039506A801F049FA402128A8FDF7FB
:10243000B8FE06A8FDF7E8FE059018A8FDF7E4FE33
:10244000049028A8009006AA18A8DDE9041301F05A
:1024500037FF00204890402138A8FDF7A2FE28A8A9
:10246000FDF7D2FE059028AB48AA4021009038A87D
:10247000FEF7EAFA38A8FFF705FFBBF1000F0CD012
:1024800038A80EA12B461DA2CDE90046CDE90210C9
:102490005146484601F012FA0CE038A807A12B4635
:1024A000244ACDE901860094CDE9031051464846FF
:1024B00001F004FA00208BE79554415D73686131A7
:1024C0000000000025640A25730A70726F6475634A
:1024D00074732F25730A25730000000025640A25F4
:1024E000730A70726F64756374732F25732F64653C
:1024F00076696365732F25730A2573007665727399
:10250000696F6E3D2573267265733D70726F6475D9
:102510006374732525324625732665743D2564262C
:102520006D6574686F643D2573267369676E3D251C
:1025300073000000F84D000870B588B005460C46E1
:102540000020049005900690079023462A4610A18B
:10255000174801F075F92046FDF756FE064604A817
:102560000121002200923346CDE901210390224649
:1025700029460A20FFF7C6FA38B9059A91B204989D
:10258000FEF7CCFC04A8FFF703F908B070BD00000B
:102590005075626C69736820546F7069633A2025C6
:1025A000732C204D73673A2025730D0A000000003C
:1025B000003801400FB400B595B000201190129082
:1025C0001390149003A8029017A80190382103A833
:1025D000019B169A01F09AF90020019003AA0CA120
:1025E000114801F02DF911A8012302AA0021009041
:1025F0001420FFF791FB38B9129A91B21198FEF7A7
:102600008DFC11A8FFF7C4F815B05DF814FB0000AD
:1026100053756273637269626520546F7069633ABF
:102620002025730D0A0000000038014030B5B3B01A
:1026300000202F903090319032900125A02107AAE0
:1026400037A3CDE90032CDE9021037A3424A43A1B6
:1026500044A0FFF7A3FE07A840A331A244A1009025
:102660004F4801F0EDF82FA8002102910391CDE928
:102670000410084601210B0229A2CDE9001007A988
:1026800036A0FFF7D7F8002842D1309A91B22F98A0
:10269000FEF744FCFA20FEF7EFFB0446002C33D093
:1026A0002046FFF7E1FC02282ED12046FFF7D6FB9B
:1026B000062823D2DFE800F003090E13181D39A104
:1026C000374801F0BDF800251DE03BA1344801F07A
:1026D000B7F818E03FA1324801F0B2F813E046A184
:1026E0002F4801F0ADF80EE04BA12D4801F0A8F8FD
:1026F00009E052A12A4801F0A3F804E05AA12848B1
:1027000001F09EF800BF00BF2FA8FFF741F803E0DB
:102710005CA1234801F094F8284633B030BD000096
:10272000424F4F54000000006B5137475A764D54CA
:102730006C6175374B4D3735596F4571526745425E
:102740004A4E35505969434F5568364359394A58AE
:102750004D386B3D0000000000CF9D74343730329F
:1027600038350000323031382D31302D3331000012
:102770004F6E654E45545F4465764C696E6B0D0A2D
:102780004E414D453A2025732C0950524F49443A49
:102790002025732C094B45593A25730D0A0000007A
:1027A00000380140546970733A09C1ACBDD3B3C954
:1027B000B9A60D0A000000005741524E3A09C1ACBB
:1027C000BDD3CAA7B0DCA3BAD0ADD2E9B4EDCEF385
:1027D0000D0A00005741524E3A09C1ACBDD3CAA7F9
:1027E000B0DCA3BAB7C7B7A8B5C4636C69656E742B
:1027F00069640D0A000000005741524E3A09C1AC0D
:10280000BDD3CAA7B0DCA3BAB7FECEF1C6F7CAA73C
:10281000B0DC0D0A000000005741524E3A09C1AC2D
:10282000BDD3CAA7B0DCA3BAD3C3BBA7C3FBBBF25B
:10283000C3DCC2EBB4EDCEF30D0A00005741524E9B
:102840003A09C1ACBDD3CAA7B0DCA3BAB7C7B7A811
:10285000C1B4BDD328B1C8C8E7746F6B656EB7C784
:10286000B7A8290D0A0000004552523A09C1ACBD73
:10287000D3CAA7B0DCA3BACEB4D6AAB4EDCEF30DBA
:102880000A0000005741524E3A094D5154545F50CE
:1028900061636B6574436F6E6E6563742046616936
:1028A0006C65640D0A00000010B588B00446202154
:1028B0006846FDF776FC1CA12046FDF7C0FC2021F0
:1028C0006846FDF76EFC1D4802881DA1684601F0B0
:1028D00009F869462046FDF76FFC20216846FDF7A0
:1028E00060FC1D481DA10268684600F0FBFF6946B8
:1028F0002046FDF761FC20216846FDF752FC1E488A
:102900001EA10268684600F0EDFF69462046FDF70B
:1029100053FC22A12046FDF74FFC2046FDF774FC36
:10292000C0B208B010BD00007B226964223A313287
:10293000332C226470223A7B000000004E000020FD
:1029400022537461747573223A5B7B2276223A2299
:102950002578227D5D2C00004400002022536F6604
:102960007477617265566572223A5B7B2276223AF1
:10297000222578227D5D2C004800002022436F6DC7
:1029800070696C657244617465223A5B7B227622C1
:102990003A222578227D5D2C000000007D7D00001C
:1029A00070B505460C4624B90549284600F09AFF43
:1029B00004E022460349284600F094FF70BD000061
:1029C000B84E0008404E00082DE9F043A9B08146FA
:1029D000002028902790269025902490002780465C
:1029E000002500244846FFF73FFB0746032F06D08B
:1029F000042F46D0092F4DD00D2F60D158E07348D9
:102A000024A925AA28ABCDE90021029026AA27A94E
:102A10004846FFF739FA8046B8F1000F30D100265A
:102A2000BDF894002899CDE90010BDF8983068A150
:102A30007648279A00F004FF75A12798FDF7C8FB98
:102A40000646E6B12F213046FDF7D4FB0646761C3C
:102A50002422314603A8FDF78BFB00208DF83000BF
:102A600003A86EA16FA371A2CDE9001050210DA89B
:102A700000F024FF74A10DA8FFF75EFD00BF00BFAA
:102A800000BF4846FFF7E0FA18B971A15F4800F0AF
:102A9000D7FE17E04846FFF721FB20B974A15B4839
:102AA00000F0CEFE03E079A1584800F0C9FE09E02D
:102AB0004846FFF7E2F908B100F0D0F902E04FF024
:102AC000FF3800BF00BFFEF701F908F1010010B99F
:102AD00029B0BDE8F0833A212898FDF78BFB054625
:102AE000002D66D008F10100002862D06D1C05E0C1
:102AF00015F8012B2046641C21A90A542878302897
:102B000002DB28783928F3DD002021A9085521A807
:102B1000FDF79EFB044664A12898FDF759FB48B1D8
:102B2000012C03D101206249087042E00020604975
:102B300008703EE05FA12898FDF74AFB50B1012CD8
:102B400003D10120FEF7CAFD33E014BB0020FEF7DD
:102B5000C5FD2EE059A12898FDF73AFB50B1012C94
:102B600003D10120FEF7CCFD23E094B90020FEF74D
:102B7000C7FD1EE053A12898FDF72AFB50B1012C98
:102B800003D10120FEF7CEFD13E014B90020FEF7BB
:102B9000C9FD0EE04DA12898FDF71AFB48B1012CA4
:102BA00003D10120FEF7D2FD03E014B90020FEF7A7
:102BB000CDFD0F2F01D0032F05D1279801F032FB57
:102BC000289801F02FFB00BF82E700005000002092
:102BD000746F7069633A2025732C20746F70696379
:102BE0005F6C656E3A2025642C207061796C6F6192
:102BF000643A2025732C207061796C6F61645F6C7E
:102C0000656E3A2025640D0A00000000003801407E
:102C1000726571756573742F00000000424F4F5448
:102C200000000000343730323835000024737973E7
:102C30002F25732F25732F636D642F726573706F4B
:102C40006E73652F257300006F6A626B00000000D1
:102C5000546970733A094D515454205075626C692F
:102C600073682053656E64204F4B0D0A000000000E
:102C7000546970733A094D5154542053756273630B
:102C800072696265204F4B0D0A0000005469707331
:102C90003A094D51545420537562736372696265E9
:102CA000204572720D0A0000555053544152540091
:102CB000340000204C656446360000004C656446D4
:102CC000370000004C656446380000004C656446DF
:102CD00039000000F0B5BDB00446002500260027ED
:102CE000F02101A8FDF75DFA4FF4A0410E48FDF771
:102CF00058FA18210D48FDF754FA01A92046FEF7AD
:102D000025FC05462B4601AA07492046FFF726FA6F
:102D1000074606490448FEF765FB0646FDF7D6FF61
:102D200030463DB0F0BD0000AC0000209400002013
:102D300030B5C5B0002041904290439044900024AB
:102D400000251CA1234800F07BFD4FF4807101A8F1
:102D5000FDF727FA01A8FFF7A7FD0446002C26D0AF
:102D600041A8002322461CA100901DA0FEF7A6FF4B
:102D7000C8B908E001A8415D429A501C42904198B0
:102D80008154681C05B2A542F4DB429A91B2419885
:102D9000FEF7C4F814A10F48429A00F051FD41A873
:102DA000FEF7F6FC03E014A10A4800F049FD45B027
:102DB00030BD0000546970733A094F6E654E6574FA
:102DC0005F53656E64446174612D4D5154540D0A16
:102DD0000000000000380140424F4F540000000046
:102DE000343730323835000053656E642025642056
:102DF00042797465730D0A005741524E3A094544B1
:102E0000505F4E6577427566666572204661696CF3
:102E100065640D0A0000000030B5C1B004464FF4EF
:102E2000807101A8FDF7BDF9214601A8FFF7B8FDA3
:102E300001A8FDF7E9F985B2294601A8FEF76EF869
:102E400001AA03A1044800F0FBFC41B030BD000022
:102E500025730D0A00000000003801401FB5002056
:102E600000900190029003906846FEF733FE38B957
:102E7000019A91B20098FEF751F86846FEF788FC77
:102E80001FBD000029B1064A52690243044B5A6132
:102E900004E0034A52698243014B5A6170470000C3
:102EA0000010024029B1064AD2690243044BDA619C
:102EB00004E0034AD2698243014BDA6170470000A3
:102EC0000010024029B1064A92690243044B9A61FC
:102ED00004E0034A92698243014B9A617047000003
:102EE0000010024010B500F041F84FF4803000F0BF
:102EF000FFF800F05BF90446012C25D11020FEF705
:102F000097F80220FEF7C2F84FF4E011200400F019
:102F100033F9012000F02AF900BF392000F0B6F89B
:102F20000028FAD0022000F035F900BF00F0CCF8FC
:102F30000828FBD1002000F0CFF84FF4806000F0AB
:102F4000FDF8002000F006F901210846FFF79AFF7E
:102F5000012144F29C20FFF7B5FF01214804FFF74F
:102F6000A1FF01210846FFF7ADFF10BD0F48006823
:102F700040F001000D490860084640680C490840CF
:102F80000A494860084600680A490840074908603D
:102F90000846006820F4802008600846406820F455
:102FA000FE0048604FF41F00886070470010024028
:102FB0000000FFF8FFFFF6FE30B5002100220024DC
:102FC00000232D4D6D6805F00C0121B1042905D0B9
:102FD000082923D105E0294D056022E0274D056031
:102FE0001FE0254D6D6805F47012234D6D6805F4E2
:102FF0008034022505EB92421CB9214D55430560F2
:103000000BE01D4D6D6805F400351DB11C4D554399
:10301000056002E0194D5543056002E0174D05605B
:1030200000BF00BF144D6D6805F0F0010909154D92
:103030006B5C0568DD4045600F4D6D6805F4E0612F
:10304000090A104D6B5C4568DD4085600A4D6D686E
:1030500005F46051C90A0B4D6B5C4568DD40C560E5
:10306000054D6D6805F44041890B074D6B5CC568E3
:10307000B5FBF3F5056130BD0010024000127A0087
:1030800000093D00000000201000002010B501469E
:103090000022002300204A11012A02D1094C236892
:1030A00006E0022A02D1074C236A01E0054C636A5C
:1030B00001F01F02012494401C400CB1012000E0EB
:1030C000002010BD001002400248406800F00C00D3
:1030D000704700000010024001460020034A50687B
:1030E00020F0F000084350607047000000100240DC
:1030F0001149096821F480310F4A116011460968AD
:1031000021F480211160B0F5803F03D0B0F5802F0D
:103110000ED106E00849096841F48031064A116081
:1031200007E00549096841F4A021034A116000E065
:1031300000BF00BF704700000010024001460020A1
:10314000034A506820F4E060084350607047000074
:103150000010024001460020034A506820F46050ED
:1031600040EAC10050607047001002400149086603
:10317000704700000000424202460020044B58689D
:1031800020F47C1042EA01031843014B5860704759
:103190000010024001460020034A506820F003005E
:1031A00008435060704700000010024038B500200E
:1031B00000900024002500BF3120FFF767FF05467F
:1031C0000098401C00900098B0F5A06F01D0002D31
:1031D000F2D03120FFF75AFF08B1012400E00024AB
:1031E000204638BD7047704710B500F001F810BD9B
:1031F0000CB50020019000903348006840F4803006
:103200003149086000BF3048006800F40030009089
:103210000198401C0190009818B90198B0F5A06F72
:10322000F1D12948006800F4003010B1012000906D
:1032300001E0002000900098012843D12348006855
:1032400040F01000214908600846006820F00300A3
:1032500008600846006840F0020008601A484068AC
:10326000194948600846406848600846406840F48C
:10327000806048600846406820F47C10486008463A
:10328000406840F4881048600846006840F080704C
:10329000086000BF0C48006800F000700028F9D0FA
:1032A0000948406820F00300074948600846406824
:1032B00040F00200486000BF0348406800F00C0086
:1032C0000828F9D10CBD0000001002400020024087
:1032D0007047000010B51348006840F00100114924
:1032E000086008464068104908400E494860084692
:1032F00000680E4908400B4908600846006820F441
:10330000802008600846406820F4FE0048604FF4C2
:103310001F008860FFF768FF4FF0006004490860F5
:1033200010BD0000001002400000FFF8FFFFF6FE95
:1033300008ED00E010B50121064800F04EF840B15C
:103340000121044800F03AF803480068401C024993
:10335000086010BD00040040180000207FB505463D
:103360000C4601210220FFF79DFDADF80850ADF895
:1033700004400020ADF80A00ADF8060001A90E488F
:1033800000F046F8012211460B4800F037F81D20E6
:103390008DF8000000208DF8010003208DF8020058
:1033A00001208DF803006846FEF72AFF012102483C
:1033B00000F007F87FBD000000040040CA4302820D
:1033C000704721B1028842F00102028004E00288C5
:1033D0004FF6FE731A400280704730B50246002057
:1033E00000230024158A05EA0103958905EA0104F2
:1033F00013B10CB1012000E0002030BD1AB1838967
:103400000B43838102E083898B43838170470000F3
:10341000002202881D4B98420ED01D4B98420BD0C3
:10342000B0F1804F08D01B4B984205D01A4B984200
:1034300002D01A4B984204D14FF68F731A404B8832
:103440001A43174B984207D0164B984204D04FF6B8
:10345000FF431A40CB881A4302808B8883850B88F0
:1034600003850A4B98420BD0094B984208D00E4B6B
:10347000984205D00D4B984202D00D4B984201D195
:103480000B7A03860123838270470000002C0140E1
:10349000003401400004004000080040000C0040DF
:1034A0000010004000140040004001400044014072
:1034B0000048014010B540F22551044800F050F892
:1034C00018B12021014800F029F810BD0038014052
:1034D00010B540F225510E4800F042F8B8B10D4841
:1034E0000088B0F5A04F02D300200A4908800848A0
:1034F000001D0088C1B2074802880088401C054BA7
:103500001880054881542021014800F007F810BDBB
:103510000044004052000020AC50002001F4007232
:10352000B2F5007F00D100BFCA430280704721B1CD
:10353000828942F40052828104E082894DF6FF7351
:103540001A408281704702460020B1F5007F00D109
:1035500000BF13880B400BB1012000E00020704732
:1035600070B50246002400230025002040F66A16AC
:10357000B14200D100BFC1F3421501F01F03012683
:1035800006FA03F3012D02D19689334006E0022D9D
:1035900002D1168A334001E0968A33400C1201268C
:1035A00006FA04F41688344013B10CB1012000E08F
:1035B000002070BDF0B50346002400260025002041
:1035C00040F66A17B94200D100BF1846C1F3421451
:1035D00001F01F06012707FA06F5012C01D10C3076
:1035E00004E0022C01D1103000E014301AB1076859
:1035F0002F43076002E00768AF430760F0BD00009B
:103600002DE9F04786B005460E460024A24600BFCD
:10361000A1460027B08900B100BF2F462C8A4CF686
:10362000FF700440F08804432C82AC894EF6F310FE
:103630000440B08831890843718908430443AC8150
:10364000AC8A4FF6FF400440B0890443AC8201A825
:10365000FFF7B2FC1F48874202D1DDF810A001E05D
:10366000DDF80CA0A88900F4004040B10AEBCA00C4
:1036700000EB0A1031684900B0FBF1F807E00AEBF3
:10368000CA0000EB0A1031688900B0FBF1F8642031
:10369000B8FBF0F004012009642101FB1089A8891E
:1036A00000F4004040B1322000EBC900B0FBF1F063
:1036B00000F00700044308E0322000EB0910642109
:1036C000B0FBF1F000F00F0004432C8106B0BDE820
:1036D000F087000000380140C1F308028280704783
:1036E00002A1124800F0ACF800BFFEE70D0A2A2A3A
:1036F0002A2A2A2A2A2A2A2A2A2A2A2A2A2A2A2A2A
:103700002A55736167654661756C745F48616E64C4
:103710006C65722A2A2A2A2A2A2A2A2A2A2A2A2A44
:103720002A2A2A2A2A2A0D0A00000000003801400D
:1037300010B586B0044602940020ADF814000C20A9
:10374000ADF812000020ADF81000ADF80E00ADF895
:103750000C0002A90E48FFF753FF01210C48FFF7A8
:10376000E6FE012240F225510948FFF723FF2520FC
:103770008DF8040001208DF8070000208DF8050069
:1037800002208DF8060001A8FEF73AFD06B010BD34
:103790000038014010B586B0044601210420FFF72F
:1037A00091FB01214804FFF77DFB18208DF81700DD
:1037B0000420ADF8140003208DF8160005A91E485A
:1037C000FDF736FD04208DF817000820ADF8140031
:1037D00003208DF8160005A91748FDF729FD01946F
:1037E0000020ADF810000C20ADF80E000020ADF860
:1037F0000C00ADF80A00ADF8080001A90F48FFF76A
:10380000FFFE01210D48FFF792FE012240F22551F3
:103810000A48FFF7CFFE26208DF8000001208DF822
:10382000030000208DF801008DF802006846FEF7C5
:10383000E7FC06B010BD0000000801400044004055
:103840000FB430B5CBB0054601AC50A800904FF492
:10385000947101A8009B4F9A00F058F80020009046
:103860000BE014F8011B2846FFF736FF00BF40218C
:103870002846FFF768FE0028F9D020780028F0D10C
:103880004BB030BC5DF814FB2DE9F04107460C4607
:10389000154600260DE014F8011B3846FFF71CFF03
:1038A00000BF40213846FFF74EFE0028F9D0701CBB
:1038B00086B2AE42EFDBBDE8F08100000FB41CB56C
:1038C0000A46521ECDE9000207A9054B6A46069832
:1038D00000F0F4F8009A002111701CBC5DF814FB94
:1038E000EB4100080FB4084B10B504A902AA0398D5
:1038F00000F0E4F8044602A9002000F081FC204614
:1039000010BC5DF814FB0000014200087CB5491EA4
:103910001C461546CDE90001044B6A46214628465F
:1039200000F0CCF8009A002111707CBDEB4100083A
:10393000004870476400002002E008C8121F08C158
:10394000002AFAD170477047002001E001C1121F20
:10395000002AFBD1704700002DE9FF5FDDE902205E
:10396000010DDDF838B0024318D044F61050A1F232
:10397000FF3141430D140F98012820D0A5EB0B0017
:10398000401C5FEA000A4FF00004474EDFF81C912C
:10399000A046504616D5CAF1000728E00F9801242A
:1039A00043A2012808D0002100980F9BC0E9002104
:1039B000C0E90243BDE8FF9F6FEA0B01F4E7CBF1DA
:1039C0000000DEE7074612E0F80707D0224633463C
:1039D00040464946FCF7F0FC80468946224633467D
:1039E00010461946FCF7E8FC04460E467F10002FEF
:1039F000EAD1DDE90201BAF1000F42464B4602DA94
:103A0000FCF7DAFC01E0FCF754FE04460E46002207
:103A1000284BFCF7D5FE03D84FF0FF30014607E0F6
:103A20000022254B20463146FCF71FFCFCF7B0FE78
:103A3000102409E0002C0ADB0A220023FCF744FDD5
:103A4000019B30321A55641E50EA0102F2D1641C07
:103A5000019AC4F1110314440F9A012A03D00122E0
:103A600008430DD10AE0084304D000204FF0110BA9
:103A70000F9080E7A3EB0B056D1E0DE05B4504DDA9
:103A80004FF0000205F1010504E003DA4FF00002F7
:103A9000A5F10105002AECD000980F99C0E9023188
:103AA000C0E9004586E70000000024400000F03F28
:103AB000300000000000F0430000E03F2DE9FF4F20
:103AC00095B09B468946064600250FE2252877D10A
:103AD00000242746F84A0121059400E0044316F823
:103AE000013F203B01FA03F01042F7D130782A2839
:103AF00011D06FF02F033078A0F13002092A16D8C8
:103B0000059A44F0020402EB820203EB42021044E5
:103B1000761C0590EFE759F8042B0592002A03DA8A
:103B2000504244F40054059044F00204761C30786E
:103B30002E2816D116F8010F44F004042A280DD0BF
:103B40006FF02F023078A0F13003092B09D807EB72
:103B5000870302EB4303C718761CF3E759F8047B8D
:103B6000761C30786C280FD006DC4C2817D06828DB
:103B70000DD06A2814D104E0742810D07A280FD10F
:103B80000DE044F400140AE044F4801401E044F42D
:103B900040147278824202D104F58014761C761C9F
:103BA000307866280BD013DC582877D009DC002841
:103BB00075D04528F6D04628F4D047281AD19DE183
:103BC00018E0632835D0642879D0652812D195E1B2
:103BD000702873D008DC6728F1D069286FD06E2870
:103BE0000DD06F2806D1B5E073282CD0752875D07C
:103BF000782874D05A46179990476D1C75E1C4F324
:103C00000250022809D003280DD0D9F8001004284A
:103C10000DD00D6009F1040967E1D9F80010EA1729
:103C2000C1E90052F6E7D9F800100D80F2E70D70F7
:103C3000F0E719F8041B8DF8001000208DF8010042
:103C4000EA46012003E059F804AB4FF0FF3061076A
:103C50004FF0000102D40DE008F101018846B9429D
:103C60000FDA8045F8DB1AF808100029F4D108E0D3
:103C700008F1010188468142FADB1AF80810002990
:103C8000F6D105985B46A0EB080721463846179AFF
:103C900000F094FA284400EB080507E04DE029E124
:103CA0000DE01AF8010B5A4617999047B8F1010830
:103CB000F7D25B4621463846179A13E142E00A22C2
:103CC0000092C4F302524FF0000A022A08D059F8B9
:103CD00004CB032A4FEAEC710AD00DE029E02AE078
:103CE00009F1070121F00702F2E802C1914609E05B
:103CF0000FFA8CFC4FEAEC71042A03D14FFA8CFCCA
:103D00004FEAEC71002907DA0A460021DCF1000CC9
:103D100061EB02012D2202E0220504D52B228DF851
:103D20000420012203E0E20701D02022F7E79046B9
:103D300059E00A2102E010220DE010214FF0000AA4
:103D400000910BE010224FF0000A44F00404082711
:103D5000009203E008224FF0000A0092C4F30252DE
:103D6000022A05D059F804CB0021032A08D009E023
:103D700009F1070121F00702F2E802C1914605E0CE
:103D80001FFA8CFC042A01D10CF0FF0C4FF0000844
:103D9000220728D5702806D0009B83F0100353EA31
:103DA0000A0305D00EE040228DF80420012208E02D
:103DB0005CEA010206D030228DF804208DF805005F
:103DC00002229046009B83F0080353EA0A030AD1BB
:103DD0005CEA010201D1620705D530228DF804208A
:103DE0004FF001087F1E582804D034A003900EA87D
:103DF00002900DE036A0F9E753466046009AFCF7C2
:103E000063FB84460398825C0298401E0290027015
:103E10005CEA0100F0D1029806A9081A00F1200A14
:103E2000600702D524F4803400E00127574502DD05
:103E3000A7EB0A0000E0002000EB0A0100900598C3
:103E40004144401A0590E00306D45B462146179A88
:103E5000059800F0B3F90544002706E001A85A468A
:103E6000C05D179990476D1C7F1C4745F6DBE0034A
:103E70000CD55B462146179A059800F09FF905443A
:103E800004E030205A46179990476D1C0099481E4F
:103E900000900029F5DC08E0029802995A46007863
:103EA000491C0291179990476D1CBAF10001AAF1C3
:103EB000010AF1DC65E100000928010030313233EC
:103EC0003435363738396162636465660000000056
:103ED0003031323334353637383941424344454640
:103EE0000000000000F058F90544761C30780028E6
:103EF0007FF4ECAD19B02846BDE8F08F620700D41E
:103F0000062709F1070222F0070CFCE80223E1462C
:103F100003F000485FEA080C02D00FF2702C0DE0AD
:103F20005FEA045C02D50FF2682C07E05FEAC47C0C
:103F300002D00FF2602C01E0AFF2700C4FF0FF38AE
:103F400023F00043CDF850C065280CD006DC45288E
:103F500009D046281DD047283DD13DE0662818D01D
:103F600067287ED138E00021112F01DB112000E00D
:103F7000781CCDE9000106A90EA8FFF7EDFCDDE9EC
:103F80000F010E9A03910021009207F1010A04919A
:103F90004DE04FF000400097CDE9011006A90EA8B2
:103FA000FFF7DAFCDDE90F0203920E9B1199002264
:103FB000DDF80CA00093049211B9791C00EB010A02
:103FC000B7EB0A0004D4C0F1FF3007F1010A0490F6
:103FD000AAEB0700019044E0012F00DA012700213D
:103FE000112F01DD112000E03846CDE9000106A9BE
:103FF0000EA8FFF7B1FCDDE90F010E9A0391002135
:1040000004910092BA4621070CD40399514500DA75
:104010008A46BAF1010F05DD009AAAF10101515C4F
:10402000302908D0B84202DA10F1040F06DA012173
:10403000CDE9011015E0AAF10101E9E7002805DC4E
:10404000049901440491AAEB000102E0411C51458E
:1040500000DD8A460499401A401C01904FF0004050
:104060000290200704D40198504501DBCDF804806C
:1040700000208DF84F0002980DF14F07B0F1004F6E
:1040800025D02B200E9002984FF0020800280CDA61
:10409000404202902D200E9007E00A210298FCF782
:1040A000FDF93031029007F8011DB8F10001A8F1C7
:1040B0000108F2DC02980028EFD1791E0E980870F2
:1040C000307800F0200040F0450007F8020D12A8FB
:1040D000C01B00F107081498007800B1012000EB24
:1040E0000A01019801EBE07105984144401A401E15
:1040F0000590E00306D45B462146179A059800F028
:104100005DF805441498007818B15A4617999047FD
:104110006D1CE00324D55B462146179A059800F0F4
:104120004DF805441CE00498002807DBDDE9030195
:10413000884203DD0098405C179901E01799302010
:104140005A469047049805F10105401C04900198D7
:10415000401E019004D12E205A46179990476D1C9D
:10416000BAF10001AAF1010ADDDC05E017F8010B44
:104170005A46179990476D1CB8F10001A8F1010843
:10418000F4DC5B462146179A0598ABE62D0000004B
:104190002B000000200000002DE9F041044600251E
:1041A0001E461746880404D405E039462020B0474F
:1041B0006D1C641EF9D52846BDE8F0812DE9F0415B
:1041C000044600251E469046C80301D5302700E06E
:1041D0002027880404D505E041463846B0476D1CC9
:1041E000641EF9D52846BDE8F0814A68002A06D049
:1041F0000A68531C0B6010704868401E4860704786
:104200000A68531C0B601070704710B50B460121F3
:104210009940C943084002F00101994040EA010475
:10422000A0B210BD10B5002821D0114B0022001FF4
:10423000196803E0814203D80A4649680029F9D188
:1042400052B11368841A9C4204D10068184410606B
:10425000104602E0506000E0186039B102680B1AA5
:10426000934203D10B681A4402604968416010BD53
:104270005C000020F0B50446142C06DA01EA0205C1
:1042800023EA010685EA060019E0282C04DA81EA0F
:10429000020787EA030012E03C2C0ADA01EA020571
:1042A00001EA030787EA050602EA030787EA060030
:1042B00005E0502C03DA81EA020787EA0300F0BD2B
:1042C0002DE9F04FADF58E5D07460E4692469846B5
:1042D0000DF58050D0F8E49140254FF0360B5C216D
:1042E000C0F8BC11002405E0002041F27C116944B3
:1042F0000855641C402CF7DBAE421FD0AE4210DDE7
:104300004A463146384600F091FB002406E019F891
:10431000040041F27C1169440855641C142CF6DB3E
:1043200016E0AE4214DA002405E0385D41F27C115B
:1043300069440855641CB442F7DB09E0002405E039
:10434000385D41F27C1169440855641CAC42F7DBCE
:1043500000240AE041F27C106844005D80EA0B0012
:1043600041F23C1169440855641C402CF2DB0024E6
:1043700006E041F23C106844005D1FA90855641C2A
:10438000402CF6DB002406E01AF804101FAA04F102
:1043900040001154641C4445F6DB08EB05014A4615
:1043A0001FA800F043FB00240DE041F27C1169449A
:1043B000095D0DF58050D0F8BC01414041F2FC028E
:1043C0006A441155641C402CEFDB002406E041F2E6
:1043D000FC006844005D0AA90855641C402CF6DB0B
:1043E000002406E019F804100AAA04F14000115450
:1043F000641C142CF6DB4A4605F114010AA800F0EF
:1044000015FB0DF58E5DBDE8F08F000070B504461C
:10441000002520681A490840B0F1005F2ED1FCF752
:10442000B5FB606817490860012080F3108800BF61
:1044300000204FF0E021086148618861FEF796FD99
:1044400000BF09E04FF0FF310F4840F825100F483A
:1044500040F82510681CC5B2082DF3DB002080F35E
:10446000108800BF00BF80F3148800BF2068FBF7EE
:1044700069FE04480068804700BFFEE770BD000089
:104480000000FE2F5800002080E100E080E200E004
:104490002DE9F04105460E4617460024B5F1006FA0
:1044A00002D32348854202D30020BDE8F081C5F342
:1044B0000A0008B10020F8E7FCF7F4FD32E007B984
:1044C00031E0B7F5006F14D22846FCF767FD0024F1
:1044D0000CE0601C305C4FEA0028305D40EA0808C0
:1044E00041462846FCF7B2FDAD1CA41CBC42F0D3EB
:1044F00019E02846FCF752FD00240CE0601C305CFB
:104500004FEA0028305D40EA080841462846FCF79B
:104510009DFDAD1CA41CB4F5006FEFD306F500663D
:10452000A7F50067CBE700BFFCF778FD0120BCE7EB
:10453000000008080146142901DA07480AE0282982
:1045400001DA064806E03C2901DA054802E0502974
:1045500000DA0448704700009979825AA1EBD96EBD
:10456000DCBC1B8FD6C162CA2DE9F04100260027B2
:104570000024FDF775F80020FDF7B0F8FA20FCF7ED
:1045800065FB0120FDF7AAF803E04FF4FA70FCF791
:104590005DFBCFA1D0A0FCF797FC0028F5D103E08C
:1045A0004FF4FA70FCF752FBFEF740F80028F7D101
:1045B000D4A2D6A1D7A0FDF7FDFF41F61F4142F2DC
:1045C0000F70FEF7CBFE47E00A20FCF755FC0446CF
:1045D00014B12046FEF7F8F9D3480068782824DDA6
:1045E000D248406800F07F40B0F1006F0BD101224B
:1045F0000021CF480088FFF708FECD490880CB484E
:10460000FFF704FF11E000220121CA48FEF7F6FE81
:104610000021C848FEF7D5FE01221146C448008893
:10462000FFF7F3FDC249088017E0C348007880B166
:104630000020C149087001220221BD480088FFF70F
:10464000E4FDBB490880FCF741FB0020B649086047
:1046500003E00A20FCF7FAFAB6E700BF00BFFCF758
:1046600063FB03E04FF4FA70FCF7F0FA98A1B3A0F3
:10467000FCF72AFC0028F5D1FEF7CEFB4FF47A7048
:10468000FCF7E4FA00BF0020FCF72EFB040003D186
:10469000A54800681428F6DB14B3B4492046FCF79B
:1046A000F3FE0646012E1CD101220321A0480088FA
:1046B000FFF7ABFD9E490880AC48007BAC49087011
:1046C000AA484068AB490860A8488068AA490860C1
:1046D000A748007820B9A9480078401CA74908706D
:1046E0000CE00122042192480088FFF78EFD9049DA
:1046F0000880A2480078401CA04908709C480078B7
:1047000038B99E480078032803DA874800681428DF
:10471000A5DB97480078002873D000BF9848007840
:10472000FEF77AFB4FF47A70FCF790FA00BF002096
:10473000FCF7DAFA040003D17B4800683228F6DB84
:10474000002C5FD02046FEF7C5FA0646012205215F
:1047500077480088FFF759FD75490880012E47D139
:104760000122062172480088FFF74FFD704908803A
:10477000002500BF2DE08349CA68834909686B4B57
:10478000C8188249FFF784FE0746012F17D17D48DC
:10479000C0687D49096808447B490860784800780A
:1047A000401C7749087000205F49086001220721FA
:1047B0005F480088FFF729FD5D4908800BE0012272
:1047C00008215B480088FFF720FD59490880681CD4
:1047D000C5B2032DCFDB00BF032D08D10122092173
:1047E00053480088FFF711FD5149088020E011E08F
:1047F00001220A214E480088FFF707FD4C49088036
:1048000008E016E001220B2149480088FFF7FDFC73
:10481000474908800A20FCF719FA5948007854499A
:104820000978884204DC404800687828FFF676AFB3
:1048300011E001220C213E480088FFF7E6FC3C49CC
:1048400008803A48406800F07F40B0F1006F02D124
:104850003648FFF7DBFD34480068782812DA012279
:104860000D2133480088FFF7D0FC314908802F48DC
:10487000406800F07F40B0F1006F25D12B48FFF772
:10488000C5FD21E03E48007801280BDD01220E2104
:1048900027480088FFF7B9FC254908802348FFF71F
:1048A000B5FD11E02148406800F07F40B0F1006F95
:1048B0000AD101220F211E480088FFF7A6FC1C49DF
:1048C00008801A48FFF7A2FD0020BDE8F081000033
:1048D000434F4E4E4543540041542B43495053548B
:1048E0004152543D22544350222C223138332E322F
:1048F00033302E34302E3936222C313838330D0AED
:1049000000000000424F4F540000000034373032A6
:1049100038350000247379732F25732F25732F6387
:104920006D642F23000000001800002000800008A4
:104930004E000020000400403400002041542B436E
:10494000495053544152543D22544350222C223456
:104950003335306C38393961302E716963702E7699
:104960006970222C38300D0A000000006800002019
:104970003500002044000020480000204C000020AA
:10498000360000209400002040000020BC000020E1
:10499000F0B50B30154D20F007010024144A0FE04C
:1049A00003688B420BD38B4205D95E1A43184768C4
:1049B000C3E9006700E04368136002C004E0021D21
:1049C00010680028ECD12046002802D1286808B1E0
:1049D0000020F0BD064A07481060074A121A22F06C
:1049E0000702C0E9002401202860D7E7600000200A
:1049F0005C000020B4A00020B0B00020F0B502465A
:104A0000C2F1200C012000FA0CF0441EE54301EA3B
:104A1000040000FA02F601EA0500C2F1200C20FAB7
:104A20000CF746EA07031846F0BD00002DE9F04FE9
:104A3000DDB007468A4615460AF1080909F1010961
:104A40004FEACA005B9048464FEAE97109EB916171
:104A50008E1148464FEAE97109EB91618911A9EB82
:104A600081115C915C98002800DD761C5C98C0F197
:104A700040008144D04604E0002007F8080008F117
:104A80000108B8EB861FF7DB802007F80A00012138
:104A9000C1EB86115B9878545B98C0F30720022124
:104AA000C1EB861178545B98C0F307400321C1EB3A
:104AB000861178545B98000E0421C1EB861178545E
:104AC00078485690784857907648C0435890764832
:104AD000C043599075485A904FF00008A5E0002453
:104AE00052E0102C32D24FEA881000EB8400385C80
:104AF000000601A941F824004FEA881000EB840069
:104B0000401C385C51F824104FF4803202FB001036
:104B100001A941F824004FEA881000EB8400801CB2
:104B2000385C51F82410121202FB001001A941F860
:104B300024004FEA881000EB8400C01C385C51F858
:104B40002410084401A941F824001CE0502C1AD27A
:104B5000E01E01AA52F82000A4F1080201AB53F8AC
:104B600022205040A4F10E0253F822205040A4F11C
:104B7000100253F8222080EA02010120FFF73EFFD5
:104B800001A941F82400641C502CAAD356985590D2
:104B90005798549058985390599852905A985190C9
:104BA00000242AE005205599FFF728FF8346204678
:104BB000529B539A5499FFF75DFB584400905199CA
:104BC0000098084400902046FFF7B4FC0099084480
:104BD000009001A850F824100098084400905298C2
:104BE0005190539852901E205499FFF707FF53900D
:104BF0005598549000985590641C502CD2D35699D7
:104C00005598084456905799549808445790589985
:104C100053980844589059995298084459905A9971
:104C2000519808445A9008F10108B045FFF657AF73
:104C30005698E8705698000AA8705698000C68704C
:104C40005698000E28705798E8715798000AA87176
:104C50005798000C68715798000E28715898E872A0
:104C60005898000AA8725898000C68725898000E5C
:104C700028725998E8735998000AA8735998000C3B
:104C800068735998000E28735A98E8745A98000A65
:104C9000A8745A98000C68745A98000E28745DB075
:104CA000BDE8F08F0123456789ABCDEFF0E1D2C3BA
:104CB0004142434445464748494A4B4C4D4E4F506C
:104CC0005152535455565758595A61626364656638
:104CD0006768696A6B6C6D6E6F70717273747576EC
:104CE0007778797A303132333435363738392B2F7B
:104CF0007F7F7F7F7F7F7F7F7F7F7F7F7F7F7F7FC4
:104D00007F7F7F7F7F7F7F7F7F7F7F7F7F7F7F7FB3
:104D10007F7F7F7F7F7F7F7F7F7F7F3E7F7F7F3F24
:104D20003435363738393A3B3C3D7F7F7F407F7F93
:104D30007F000102030405060708090A0B0C0D0E8B
:104D40000F101112131415161718197F7F7F7F7F0C
:104D50007F1A1B1C1D1E1F202122232425262728E5
:104D6000292A2B2C2D2E2F303132337F7F7F7F7FCE
:104D7000004040404040404040404141414141406E
:104D80004040404040404040404040404040404023
:104D900040050202020202020202020202020202B2
:104DA00002202020202020202020200202020202B7
:104DB000020290909090909010101010101010100F
:104DC000101010101010101010101010020202021B
:104DD000020288888888888808080808080808085F
:104DE000080808080808080808080808020202025B
:104DF00040000000714D000876657273696F6E3D6A
:104E00002573267265733D70726F647563747325C4
:104E100025324625732525324664657669636573B8
:104E20002525324625732665743D2564266D6574F7
:104E3000686F643D2573267369676E3D25730000B6
:104E400047455420687474703A2F2F343335306CD2
:104E500038393961302E716963702E7669702F414F
:104E6000505042494E2F4C6F616441707025642E42
:104E7000706B6720485454502F312E310D0A486F03
:104E800073743A20343335306C38393961302E71CF
:104E90006963702E7669700D0A436F6E6E65637478
:104EA000696F6E3A6B6565702D616C6976650D0A88
:104EB0000D0A0D0A00000000474554206874747004
:104EC0003A2F2F343335306C38393961302E7169CF
:104ED00063702E7669702F41505042494E2F4C6FAF
:104EE00061644170702E786D6C20485454502F319D
:104EF0002E310D0A486F73743A20343335306C38D4
:104F0000393961302E716963702E7669700D0A43EC
:104F10006F6E6E656374696F6E3A6B6565702D6157
:104F20006C6976650D0A0D0A0D0A00004C4F0008E9
:104F3000000000206800000038390008B44F000865
:104F40006800002048C00000483900080000000048
:104F5000010203040102030406070809020406080B
:104F60000000000000000000000000000000000041
:104F70000000000000000000000000000000000031
:104F80000000010000000000000000000000000020
:104F90000000000000000000000000000000000011
:104FA0000000000000000000000000000000000001
:044FB00000000000FD
:0400000508000131BD
:00000001FF
